{
  "address": "0xb1F60446003ff4165c0729f2B2A32A5505fc4FBe",
  "abi": [
    {
      "inputs": [],
      "stateMutability": "nonpayable",
      "type": "constructor"
    },
    {
      "anonymous": false,
      "inputs": [
        {
          "indexed": true,
          "internalType": "address",
          "name": "owner",
          "type": "address"
        },
        {
          "indexed": true,
          "internalType": "address",
          "name": "approved",
          "type": "address"
        },
        {
          "indexed": true,
          "internalType": "uint256",
          "name": "tokenId",
          "type": "uint256"
        }
      ],
      "name": "Approval",
      "type": "event"
    },
    {
      "anonymous": false,
      "inputs": [
        {
          "indexed": true,
          "internalType": "address",
          "name": "owner",
          "type": "address"
        },
        {
          "indexed": true,
          "internalType": "address",
          "name": "operator",
          "type": "address"
        },
        {
          "indexed": false,
          "internalType": "bool",
          "name": "approved",
          "type": "bool"
        }
      ],
      "name": "ApprovalForAll",
      "type": "event"
    },
    {
      "anonymous": false,
      "inputs": [
        {
          "indexed": true,
          "internalType": "address",
          "name": "from",
          "type": "address"
        },
        {
          "indexed": true,
          "internalType": "address",
          "name": "to",
          "type": "address"
        },
        {
          "indexed": true,
          "internalType": "uint256",
          "name": "tokenId",
          "type": "uint256"
        }
      ],
      "name": "Transfer",
      "type": "event"
    },
    {
      "inputs": [
        {
          "internalType": "address",
          "name": "to",
          "type": "address"
        },
        {
          "internalType": "uint256",
          "name": "tokenId",
          "type": "uint256"
        }
      ],
      "name": "approve",
      "outputs": [],
      "stateMutability": "nonpayable",
      "type": "function"
    },
    {
      "inputs": [
        {
          "internalType": "address",
          "name": "owner",
          "type": "address"
        }
      ],
      "name": "balanceOf",
      "outputs": [
        {
          "internalType": "uint256",
          "name": "",
          "type": "uint256"
        }
      ],
      "stateMutability": "view",
      "type": "function"
    },
    {
      "inputs": [
        {
          "internalType": "uint256",
          "name": "tokenId",
          "type": "uint256"
        }
      ],
      "name": "getApproved",
      "outputs": [
        {
          "internalType": "address",
          "name": "",
          "type": "address"
        }
      ],
      "stateMutability": "view",
      "type": "function"
    },
    {
      "inputs": [
        {
          "internalType": "address",
          "name": "owner",
          "type": "address"
        },
        {
          "internalType": "address",
          "name": "operator",
          "type": "address"
        }
      ],
      "name": "isApprovedForAll",
      "outputs": [
        {
          "internalType": "bool",
          "name": "",
          "type": "bool"
        }
      ],
      "stateMutability": "view",
      "type": "function"
    },
    {
      "inputs": [
        {
          "internalType": "address",
          "name": "_to",
          "type": "address"
        },
        {
          "internalType": "uint256",
          "name": "_amount",
          "type": "uint256"
        }
      ],
      "name": "mint",
      "outputs": [],
      "stateMutability": "nonpayable",
      "type": "function"
    },
    {
      "inputs": [],
      "name": "name",
      "outputs": [
        {
          "internalType": "string",
          "name": "",
          "type": "string"
        }
      ],
      "stateMutability": "view",
      "type": "function"
    },
    {
      "inputs": [
        {
          "internalType": "uint256",
          "name": "tokenId",
          "type": "uint256"
        }
      ],
      "name": "ownerOf",
      "outputs": [
        {
          "internalType": "address",
          "name": "",
          "type": "address"
        }
      ],
      "stateMutability": "view",
      "type": "function"
    },
    {
      "inputs": [
        {
          "internalType": "address",
          "name": "from",
          "type": "address"
        },
        {
          "internalType": "address",
          "name": "to",
          "type": "address"
        },
        {
          "internalType": "uint256",
          "name": "tokenId",
          "type": "uint256"
        }
      ],
      "name": "safeTransferFrom",
      "outputs": [],
      "stateMutability": "nonpayable",
      "type": "function"
    },
    {
      "inputs": [
        {
          "internalType": "address",
          "name": "from",
          "type": "address"
        },
        {
          "internalType": "address",
          "name": "to",
          "type": "address"
        },
        {
          "internalType": "uint256",
          "name": "tokenId",
          "type": "uint256"
        },
        {
          "internalType": "bytes",
          "name": "_data",
          "type": "bytes"
        }
      ],
      "name": "safeTransferFrom",
      "outputs": [],
      "stateMutability": "nonpayable",
      "type": "function"
    },
    {
      "inputs": [
        {
          "internalType": "address",
          "name": "operator",
          "type": "address"
        },
        {
          "internalType": "bool",
          "name": "approved",
          "type": "bool"
        }
      ],
      "name": "setApprovalForAll",
      "outputs": [],
      "stateMutability": "nonpayable",
      "type": "function"
    },
    {
      "inputs": [
        {
          "internalType": "bytes4",
          "name": "interfaceId",
          "type": "bytes4"
        }
      ],
      "name": "supportsInterface",
      "outputs": [
        {
          "internalType": "bool",
          "name": "",
          "type": "bool"
        }
      ],
      "stateMutability": "view",
      "type": "function"
    },
    {
      "inputs": [],
      "name": "symbol",
      "outputs": [
        {
          "internalType": "string",
          "name": "",
          "type": "string"
        }
      ],
      "stateMutability": "view",
      "type": "function"
    },
    {
      "inputs": [
        {
          "internalType": "uint256",
          "name": "index",
          "type": "uint256"
        }
      ],
      "name": "tokenByIndex",
      "outputs": [
        {
          "internalType": "uint256",
          "name": "",
          "type": "uint256"
        }
      ],
      "stateMutability": "view",
      "type": "function"
    },
    {
      "inputs": [
        {
          "internalType": "address",
          "name": "owner",
          "type": "address"
        },
        {
          "internalType": "uint256",
          "name": "index",
          "type": "uint256"
        }
      ],
      "name": "tokenOfOwnerByIndex",
      "outputs": [
        {
          "internalType": "uint256",
          "name": "",
          "type": "uint256"
        }
      ],
      "stateMutability": "view",
      "type": "function"
    },
    {
      "inputs": [
        {
          "internalType": "uint256",
          "name": "tokenId",
          "type": "uint256"
        }
      ],
      "name": "tokenURI",
      "outputs": [
        {
          "internalType": "string",
          "name": "",
          "type": "string"
        }
      ],
      "stateMutability": "view",
      "type": "function"
    },
    {
      "inputs": [],
      "name": "totalSupply",
      "outputs": [
        {
          "internalType": "uint256",
          "name": "",
          "type": "uint256"
        }
      ],
      "stateMutability": "view",
      "type": "function"
    },
    {
      "inputs": [
        {
          "internalType": "address",
          "name": "from",
          "type": "address"
        },
        {
          "internalType": "address",
          "name": "to",
          "type": "address"
        },
        {
          "internalType": "uint256",
          "name": "tokenId",
          "type": "uint256"
        }
      ],
      "name": "transferFrom",
      "outputs": [],
      "stateMutability": "nonpayable",
      "type": "function"
    }
  ],
  "transactionHash": "0xaf62f7d87079b9a43a63111c719fafc33180da35141182ec727ea988600298a0",
  "args": [],
  "solcInputHash": "e9f483cbcb3299236c502b27e2ac49f1",
  "bytecode": "0x60806040523480156200001157600080fd5b506040518060400160405280600b81526020017f46616b65204552433732310000000000000000000000000000000000000000008152506040518060400160405280600781526020017f4645524337323100000000000000000000000000000000000000000000000000815250816000908051906020019062000096929190620000b8565b508060019080519060200190620000af929190620000b8565b505050620001cd565b828054620000c69062000168565b90600052602060002090601f016020900481019282620000ea576000855562000136565b82601f106200010557805160ff191683800117855562000136565b8280016001018555821562000136579182015b828111156200013557825182559160200191906001019062000118565b5b50905062000145919062000149565b5090565b5b80821115620001645760008160009055506001016200014a565b5090565b600060028204905060018216806200018157607f821691505b602082108114156200019857620001976200019e565b5b50919050565b7f4e487b7100000000000000000000000000000000000000000000000000000000600052602260045260246000fd5b612ed780620001dd6000396000f3fe608060405234801561001057600080fd5b506004361061010b5760003560e01c806342842e0e116100a257806395d89b411161007157806395d89b41146102dc578063a22cb465146102fa578063b88d4fde14610316578063c87b56dd14610332578063e985e9c5146103625761010b565b806342842e0e146102305780634f6ccce71461024c5780636352211e1461027c57806370a08231146102ac5761010b565b806318160ddd116100de57806318160ddd146101aa57806323b872dd146101c85780632f745c59146101e457806340c10f19146102145761010b565b806301ffc9a71461011057806306fdde0314610140578063081812fc1461015e578063095ea7b31461018e575b600080fd5b61012a60048036038101906101259190611fb5565b610392565b60405161013791906123bb565b60405180910390f35b61014861040c565b60405161015591906123d6565b60405180910390f35b61017860048036038101906101739190612007565b61049e565b6040516101859190612354565b60405180910390f35b6101a860048036038101906101a39190611f79565b610523565b005b6101b261063b565b6040516101bf91906125f8565b60405180910390f35b6101e260048036038101906101dd9190611e73565b610648565b005b6101fe60048036038101906101f99190611f79565b6106a8565b60405161020b91906125f8565b60405180910390f35b61022e60048036038101906102299190611f79565b61074d565b005b61024a60048036038101906102459190611e73565b610790565b005b61026660048036038101906102619190612007565b6107b0565b60405161027391906125f8565b60405180910390f35b61029660048036038101906102919190612007565b610847565b6040516102a39190612354565b60405180910390f35b6102c660048036038101906102c19190611e0e565b6108f9565b6040516102d391906125f8565b60405180910390f35b6102e46109b1565b6040516102f191906123d6565b60405180910390f35b610314600480360381019061030f9190611f3d565b610a43565b005b610330600480360381019061032b9190611ec2565b610bc4565b005b61034c60048036038101906103479190612007565b610c26565b60405161035991906123d6565b60405180910390f35b61037c60048036038101906103779190611e37565b610ccd565b60405161038991906123bb565b60405180910390f35b60007f780e9d63000000000000000000000000000000000000000000000000000000007bffffffffffffffffffffffffffffffffffffffffffffffffffffffff1916827bffffffffffffffffffffffffffffffffffffffffffffffffffffffff19161480610405575061040482610d61565b5b9050919050565b60606000805461041b9061281d565b80601f01602080910402602001604051908101604052809291908181526020018280546104479061281d565b80156104945780601f1061046957610100808354040283529160200191610494565b820191906000526020600020905b81548152906001019060200180831161047757829003601f168201915b5050505050905090565b60006104a982610e43565b6104e8576040517f08c379a00000000000000000000000000000000000000000000000000000000081526004016104df90612538565b60405180910390fd5b6004600083815260200190815260200160002060009054906101000a900473ffffffffffffffffffffffffffffffffffffffff169050919050565b600061052e82610847565b90508073ffffffffffffffffffffffffffffffffffffffff168373ffffffffffffffffffffffffffffffffffffffff16141561059f576040517f08c379a000000000000000000000000000000000000000000000000000000000815260040161059690612598565b60405180910390fd5b8073ffffffffffffffffffffffffffffffffffffffff166105be610eaf565b73ffffffffffffffffffffffffffffffffffffffff1614806105ed57506105ec816105e7610eaf565b610ccd565b5b61062c576040517f08c379a0000000000000000000000000000000000000000000000000000000008152600401610623906124b8565b60405180910390fd5b6106368383610eb7565b505050565b6000600880549050905090565b610659610653610eaf565b82610f70565b610698576040517f08c379a000000000000000000000000000000000000000000000000000000000815260040161068f906125b8565b60405180910390fd5b6106a383838361104e565b505050565b60006106b3836108f9565b82106106f4576040517f08c379a00000000000000000000000000000000000000000000000000000000081526004016106eb906123f8565b60405180910390fd5b600660008473ffffffffffffffffffffffffffffffffffffffff1673ffffffffffffffffffffffffffffffffffffffff168152602001908152602001600020600083815260200190815260200160002054905092915050565b600061075761063b565b905060005b8281101561078a5761077984828461077491906126ac565b6112aa565b8061078390612880565b905061075c565b50505050565b6107ab83838360405180602001604052806000815250610bc4565b505050565b60006107ba61063b565b82106107fb576040517f08c379a00000000000000000000000000000000000000000000000000000000081526004016107f2906125d8565b60405180910390fd5b60088281548110610835577f4e487b7100000000000000000000000000000000000000000000000000000000600052603260045260246000fd5b90600052602060002001549050919050565b6000806002600084815260200190815260200160002060009054906101000a900473ffffffffffffffffffffffffffffffffffffffff169050600073ffffffffffffffffffffffffffffffffffffffff168173ffffffffffffffffffffffffffffffffffffffff1614156108f0576040517f08c379a00000000000000000000000000000000000000000000000000000000081526004016108e7906124f8565b60405180910390fd5b80915050919050565b60008073ffffffffffffffffffffffffffffffffffffffff168273ffffffffffffffffffffffffffffffffffffffff16141561096a576040517f08c379a0000000000000000000000000000000000000000000000000000000008152600401610961906124d8565b60405180910390fd5b600360008373ffffffffffffffffffffffffffffffffffffffff1673ffffffffffffffffffffffffffffffffffffffff168152602001908152602001600020549050919050565b6060600180546109c09061281d565b80601f01602080910402602001604051908101604052809291908181526020018280546109ec9061281d565b8015610a395780601f10610a0e57610100808354040283529160200191610a39565b820191906000526020600020905b815481529060010190602001808311610a1c57829003601f168201915b5050505050905090565b610a4b610eaf565b73ffffffffffffffffffffffffffffffffffffffff168273ffffffffffffffffffffffffffffffffffffffff161415610ab9576040517f08c379a0000000000000000000000000000000000000000000000000000000008152600401610ab090612478565b60405180910390fd5b8060056000610ac6610eaf565b73ffffffffffffffffffffffffffffffffffffffff1673ffffffffffffffffffffffffffffffffffffffff16815260200190815260200160002060008473ffffffffffffffffffffffffffffffffffffffff1673ffffffffffffffffffffffffffffffffffffffff16815260200190815260200160002060006101000a81548160ff0219169083151502179055508173ffffffffffffffffffffffffffffffffffffffff16610b73610eaf565b73ffffffffffffffffffffffffffffffffffffffff167f17307eab39ab6107e8899845ad3d59bd9653f200f220920489ca2b5937696c3183604051610bb891906123bb565b60405180910390a35050565b610bd5610bcf610eaf565b83610f70565b610c14576040517f08c379a0000000000000000000000000000000000000000000000000000000008152600401610c0b906125b8565b60405180910390fd5b610c2084848484611478565b50505050565b6060610c3182610e43565b610c70576040517f08c379a0000000000000000000000000000000000000000000000000000000008152600401610c6790612578565b60405180910390fd5b6000610c7a6114d4565b90506000815111610c9a5760405180602001604052806000815250610cc5565b80610ca4846114eb565b604051602001610cb5929190612330565b6040516020818303038152906040525b915050919050565b6000600560008473ffffffffffffffffffffffffffffffffffffffff1673ffffffffffffffffffffffffffffffffffffffff16815260200190815260200160002060008373ffffffffffffffffffffffffffffffffffffffff1673ffffffffffffffffffffffffffffffffffffffff16815260200190815260200160002060009054906101000a900460ff16905092915050565b60007f80ac58cd000000000000000000000000000000000000000000000000000000007bffffffffffffffffffffffffffffffffffffffffffffffffffffffff1916827bffffffffffffffffffffffffffffffffffffffffffffffffffffffff19161480610e2c57507f5b5e139f000000000000000000000000000000000000000000000000000000007bffffffffffffffffffffffffffffffffffffffffffffffffffffffff1916827bffffffffffffffffffffffffffffffffffffffffffffffffffffffff1916145b80610e3c5750610e3b82611698565b5b9050919050565b60008073ffffffffffffffffffffffffffffffffffffffff166002600084815260200190815260200160002060009054906101000a900473ffffffffffffffffffffffffffffffffffffffff1673ffffffffffffffffffffffffffffffffffffffff1614159050919050565b600033905090565b816004600083815260200190815260200160002060006101000a81548173ffffffffffffffffffffffffffffffffffffffff021916908373ffffffffffffffffffffffffffffffffffffffff160217905550808273ffffffffffffffffffffffffffffffffffffffff16610f2a83610847565b73ffffffffffffffffffffffffffffffffffffffff167f8c5be1e5ebec7d5bd14f71427d1e84f3dd0314c0f7b2291e5b200ac8c7c3b92560405160405180910390a45050565b6000610f7b82610e43565b610fba576040517f08c379a0000000000000000000000000000000000000000000000000000000008152600401610fb190612498565b60405180910390fd5b6000610fc583610847565b90508073ffffffffffffffffffffffffffffffffffffffff168473ffffffffffffffffffffffffffffffffffffffff16148061103457508373ffffffffffffffffffffffffffffffffffffffff1661101c8461049e565b73ffffffffffffffffffffffffffffffffffffffff16145b8061104557506110448185610ccd565b5b91505092915050565b8273ffffffffffffffffffffffffffffffffffffffff1661106e82610847565b73ffffffffffffffffffffffffffffffffffffffff16146110c4576040517f08c379a00000000000000000000000000000000000000000000000000000000081526004016110bb90612558565b60405180910390fd5b600073ffffffffffffffffffffffffffffffffffffffff168273ffffffffffffffffffffffffffffffffffffffff161415611134576040517f08c379a000000000000000000000000000000000000000000000000000000000815260040161112b90612458565b60405180910390fd5b61113f838383611702565b61114a600082610eb7565b6001600360008573ffffffffffffffffffffffffffffffffffffffff1673ffffffffffffffffffffffffffffffffffffffff168152602001908152602001600020600082825461119a9190612733565b925050819055506001600360008473ffffffffffffffffffffffffffffffffffffffff1673ffffffffffffffffffffffffffffffffffffffff16815260200190815260200160002060008282546111f191906126ac565b92505081905550816002600083815260200190815260200160002060006101000a81548173ffffffffffffffffffffffffffffffffffffffff021916908373ffffffffffffffffffffffffffffffffffffffff160217905550808273ffffffffffffffffffffffffffffffffffffffff168473ffffffffffffffffffffffffffffffffffffffff167fddf252ad1be2c89b69c2b068fc378daa952ba7f163c4a11628f55a4df523b3ef60405160405180910390a4505050565b600073ffffffffffffffffffffffffffffffffffffffff168273ffffffffffffffffffffffffffffffffffffffff16141561131a576040517f08c379a000000000000000000000000000000000000000000000000000000000815260040161131190612518565b60405180910390fd5b61132381610e43565b15611363576040517f08c379a000000000000000000000000000000000000000000000000000000000815260040161135a90612438565b60405180910390fd5b61136f60008383611702565b6001600360008473ffffffffffffffffffffffffffffffffffffffff1673ffffffffffffffffffffffffffffffffffffffff16815260200190815260200160002060008282546113bf91906126ac565b92505081905550816002600083815260200190815260200160002060006101000a81548173ffffffffffffffffffffffffffffffffffffffff021916908373ffffffffffffffffffffffffffffffffffffffff160217905550808273ffffffffffffffffffffffffffffffffffffffff16600073ffffffffffffffffffffffffffffffffffffffff167fddf252ad1be2c89b69c2b068fc378daa952ba7f163c4a11628f55a4df523b3ef60405160405180910390a45050565b61148384848461104e565b61148f84848484611816565b6114ce576040517f08c379a00000000000000000000000000000000000000000000000000000000081526004016114c590612418565b60405180910390fd5b50505050565b606060405180602001604052806000815250905090565b60606000821415611533576040518060400160405280600181526020017f30000000000000000000000000000000000000000000000000000000000000008152509050611693565b600082905060005b6000821461156557808061154e90612880565b915050600a8261155e9190612702565b915061153b565b60008167ffffffffffffffff8111156115a7577f4e487b7100000000000000000000000000000000000000000000000000000000600052604160045260246000fd5b6040519080825280601f01601f1916602001820160405280156115d95781602001600182028036833780820191505090505b5090505b6000851461168c576001826115f29190612733565b9150600a8561160191906128c9565b603061160d91906126ac565b60f81b818381518110611649577f4e487b7100000000000000000000000000000000000000000000000000000000600052603260045260246000fd5b60200101907effffffffffffffffffffffffffffffffffffffffffffffffffffffffffffff1916908160001a905350600a856116859190612702565b94506115dd565b8093505050505b919050565b60007f01ffc9a7000000000000000000000000000000000000000000000000000000007bffffffffffffffffffffffffffffffffffffffffffffffffffffffff1916827bffffffffffffffffffffffffffffffffffffffffffffffffffffffff1916149050919050565b61170d8383836119ad565b600073ffffffffffffffffffffffffffffffffffffffff168373ffffffffffffffffffffffffffffffffffffffff1614156117505761174b816119b2565b61178f565b8173ffffffffffffffffffffffffffffffffffffffff168373ffffffffffffffffffffffffffffffffffffffff161461178e5761178d83826119fb565b5b5b600073ffffffffffffffffffffffffffffffffffffffff168273ffffffffffffffffffffffffffffffffffffffff1614156117d2576117cd81611b68565b611811565b8273ffffffffffffffffffffffffffffffffffffffff168273ffffffffffffffffffffffffffffffffffffffff16146118105761180f8282611cab565b5b5b505050565b60006118378473ffffffffffffffffffffffffffffffffffffffff16611d2a565b156119a0578373ffffffffffffffffffffffffffffffffffffffff1663150b7a02611860610eaf565b8786866040518563ffffffff1660e01b8152600401611882949392919061236f565b602060405180830381600087803b15801561189c57600080fd5b505af19250505080156118cd57506040513d601f19601f820116820180604052508101906118ca9190611fde565b60015b611950573d80600081146118fd576040519150601f19603f3d011682016040523d82523d6000602084013e611902565b606091505b50600081511415611948576040517f08c379a000000000000000000000000000000000000000000000000000000000815260040161193f90612418565b60405180910390fd5b805181602001fd5b63150b7a0260e01b7bffffffffffffffffffffffffffffffffffffffffffffffffffffffff1916817bffffffffffffffffffffffffffffffffffffffffffffffffffffffff1916149150506119a5565b600190505b949350505050565b505050565b6008805490506009600083815260200190815260200160002081905550600881908060018154018082558091505060019003906000526020600020016000909190919091505550565b60006001611a08846108f9565b611a129190612733565b9050600060076000848152602001908152602001600020549050818114611af7576000600660008673ffffffffffffffffffffffffffffffffffffffff1673ffffffffffffffffffffffffffffffffffffffff168152602001908152602001600020600084815260200190815260200160002054905080600660008773ffffffffffffffffffffffffffffffffffffffff1673ffffffffffffffffffffffffffffffffffffffff168152602001908152602001600020600084815260200190815260200160002081905550816007600083815260200190815260200160002081905550505b6007600084815260200190815260200160002060009055600660008573ffffffffffffffffffffffffffffffffffffffff1673ffffffffffffffffffffffffffffffffffffffff16815260200190815260200160002060008381526020019081526020016000206000905550505050565b60006001600880549050611b7c9190612733565b9050600060096000848152602001908152602001600020549050600060088381548110611bd2577f4e487b7100000000000000000000000000000000000000000000000000000000600052603260045260246000fd5b906000526020600020015490508060088381548110611c1a577f4e487b7100000000000000000000000000000000000000000000000000000000600052603260045260246000fd5b906000526020600020018190555081600960008381526020019081526020016000208190555060096000858152602001908152602001600020600090556008805480611c8f577f4e487b7100000000000000000000000000000000000000000000000000000000600052603160045260246000fd5b6001900381819060005260206000200160009055905550505050565b6000611cb6836108f9565b905081600660008573ffffffffffffffffffffffffffffffffffffffff1673ffffffffffffffffffffffffffffffffffffffff168152602001908152602001600020600083815260200190815260200160002081905550806007600084815260200190815260200160002081905550505050565b600080823b905060008111915050919050565b6000611d50611d4b84612638565b612613565b905082815260208101848484011115611d6857600080fd5b611d738482856127db565b509392505050565b600081359050611d8a81612e45565b92915050565b600081359050611d9f81612e5c565b92915050565b600081359050611db481612e73565b92915050565b600081519050611dc981612e73565b92915050565b600082601f830112611de057600080fd5b8135611df0848260208601611d3d565b91505092915050565b600081359050611e0881612e8a565b92915050565b600060208284031215611e2057600080fd5b6000611e2e84828501611d7b565b91505092915050565b60008060408385031215611e4a57600080fd5b6000611e5885828601611d7b565b9250506020611e6985828601611d7b565b9150509250929050565b600080600060608486031215611e8857600080fd5b6000611e9686828701611d7b565b9350506020611ea786828701611d7b565b9250506040611eb886828701611df9565b9150509250925092565b60008060008060808587031215611ed857600080fd5b6000611ee687828801611d7b565b9450506020611ef787828801611d7b565b9350506040611f0887828801611df9565b925050606085013567ffffffffffffffff811115611f2557600080fd5b611f3187828801611dcf565b91505092959194509250565b60008060408385031215611f5057600080fd5b6000611f5e85828601611d7b565b9250506020611f6f85828601611d90565b9150509250929050565b60008060408385031215611f8c57600080fd5b6000611f9a85828601611d7b565b9250506020611fab85828601611df9565b9150509250929050565b600060208284031215611fc757600080fd5b6000611fd584828501611da5565b91505092915050565b600060208284031215611ff057600080fd5b6000611ffe84828501611dba565b91505092915050565b60006020828403121561201957600080fd5b600061202784828501611df9565b91505092915050565b61203981612767565b82525050565b61204881612779565b82525050565b600061205982612669565b612063818561267f565b93506120738185602086016127ea565b61207c816129b6565b840191505092915050565b600061209282612674565b61209c8185612690565b93506120ac8185602086016127ea565b6120b5816129b6565b840191505092915050565b60006120cb82612674565b6120d581856126a1565b93506120e58185602086016127ea565b80840191505092915050565b60006120fe602b83612690565b9150612109826129c7565b604082019050919050565b6000612121603283612690565b915061212c82612a16565b604082019050919050565b6000612144601c83612690565b915061214f82612a65565b602082019050919050565b6000612167602483612690565b915061217282612a8e565b604082019050919050565b600061218a601983612690565b915061219582612add565b602082019050919050565b60006121ad602c83612690565b91506121b882612b06565b604082019050919050565b60006121d0603883612690565b91506121db82612b55565b604082019050919050565b60006121f3602a83612690565b91506121fe82612ba4565b604082019050919050565b6000612216602983612690565b915061222182612bf3565b604082019050919050565b6000612239602083612690565b915061224482612c42565b602082019050919050565b600061225c602c83612690565b915061226782612c6b565b604082019050919050565b600061227f602983612690565b915061228a82612cba565b604082019050919050565b60006122a2602f83612690565b91506122ad82612d09565b604082019050919050565b60006122c5602183612690565b91506122d082612d58565b604082019050919050565b60006122e8603183612690565b91506122f382612da7565b604082019050919050565b600061230b602c83612690565b915061231682612df6565b604082019050919050565b61232a816127d1565b82525050565b600061233c82856120c0565b915061234882846120c0565b91508190509392505050565b60006020820190506123696000830184612030565b92915050565b60006080820190506123846000830187612030565b6123916020830186612030565b61239e6040830185612321565b81810360608301526123b0818461204e565b905095945050505050565b60006020820190506123d0600083018461203f565b92915050565b600060208201905081810360008301526123f08184612087565b905092915050565b60006020820190508181036000830152612411816120f1565b9050919050565b6000602082019050818103600083015261243181612114565b9050919050565b6000602082019050818103600083015261245181612137565b9050919050565b600060208201905081810360008301526124718161215a565b9050919050565b600060208201905081810360008301526124918161217d565b9050919050565b600060208201905081810360008301526124b1816121a0565b9050919050565b600060208201905081810360008301526124d1816121c3565b9050919050565b600060208201905081810360008301526124f1816121e6565b9050919050565b6000602082019050818103600083015261251181612209565b9050919050565b600060208201905081810360008301526125318161222c565b9050919050565b600060208201905081810360008301526125518161224f565b9050919050565b6000602082019050818103600083015261257181612272565b9050919050565b6000602082019050818103600083015261259181612295565b9050919050565b600060208201905081810360008301526125b1816122b8565b9050919050565b600060208201905081810360008301526125d1816122db565b9050919050565b600060208201905081810360008301526125f1816122fe565b9050919050565b600060208201905061260d6000830184612321565b92915050565b600061261d61262e565b9050612629828261284f565b919050565b6000604051905090565b600067ffffffffffffffff82111561265357612652612987565b5b61265c826129b6565b9050602081019050919050565b600081519050919050565b600081519050919050565b600082825260208201905092915050565b600082825260208201905092915050565b600081905092915050565b60006126b7826127d1565b91506126c2836127d1565b9250827fffffffffffffffffffffffffffffffffffffffffffffffffffffffffffffffff038211156126f7576126f66128fa565b5b828201905092915050565b600061270d826127d1565b9150612718836127d1565b92508261272857612727612929565b5b828204905092915050565b600061273e826127d1565b9150612749836127d1565b92508282101561275c5761275b6128fa565b5b828203905092915050565b6000612772826127b1565b9050919050565b60008115159050919050565b60007fffffffff0000000000000000000000000000000000000000000000000000000082169050919050565b600073ffffffffffffffffffffffffffffffffffffffff82169050919050565b6000819050919050565b82818337600083830152505050565b60005b838110156128085780820151818401526020810190506127ed565b83811115612817576000848401525b50505050565b6000600282049050600182168061283557607f821691505b6020821081141561284957612848612958565b5b50919050565b612858826129b6565b810181811067ffffffffffffffff8211171561287757612876612987565b5b80604052505050565b600061288b826127d1565b91507fffffffffffffffffffffffffffffffffffffffffffffffffffffffffffffffff8214156128be576128bd6128fa565b5b600182019050919050565b60006128d4826127d1565b91506128df836127d1565b9250826128ef576128ee612929565b5b828206905092915050565b7f4e487b7100000000000000000000000000000000000000000000000000000000600052601160045260246000fd5b7f4e487b7100000000000000000000000000000000000000000000000000000000600052601260045260246000fd5b7f4e487b7100000000000000000000000000000000000000000000000000000000600052602260045260246000fd5b7f4e487b7100000000000000000000000000000000000000000000000000000000600052604160045260246000fd5b6000601f19601f8301169050919050565b7f455243373231456e756d657261626c653a206f776e657220696e646578206f7560008201527f74206f6620626f756e6473000000000000000000000000000000000000000000602082015250565b7f4552433732313a207472616e7366657220746f206e6f6e20455243373231526560008201527f63656976657220696d706c656d656e7465720000000000000000000000000000602082015250565b7f4552433732313a20746f6b656e20616c7265616479206d696e74656400000000600082015250565b7f4552433732313a207472616e7366657220746f20746865207a65726f2061646460008201527f7265737300000000000000000000000000000000000000000000000000000000602082015250565b7f4552433732313a20617070726f766520746f2063616c6c657200000000000000600082015250565b7f4552433732313a206f70657261746f7220717565727920666f72206e6f6e657860008201527f697374656e7420746f6b656e0000000000000000000000000000000000000000602082015250565b7f4552433732313a20617070726f76652063616c6c6572206973206e6f74206f7760008201527f6e6572206e6f7220617070726f76656420666f7220616c6c0000000000000000602082015250565b7f4552433732313a2062616c616e636520717565727920666f7220746865207a6560008201527f726f206164647265737300000000000000000000000000000000000000000000602082015250565b7f4552433732313a206f776e657220717565727920666f72206e6f6e657869737460008201527f656e7420746f6b656e0000000000000000000000000000000000000000000000602082015250565b7f4552433732313a206d696e7420746f20746865207a65726f2061646472657373600082015250565b7f4552433732313a20617070726f76656420717565727920666f72206e6f6e657860008201527f697374656e7420746f6b656e0000000000000000000000000000000000000000602082015250565b7f4552433732313a207472616e73666572206f6620746f6b656e2074686174206960008201527f73206e6f74206f776e0000000000000000000000000000000000000000000000602082015250565b7f4552433732314d657461646174613a2055524920717565727920666f72206e6f60008201527f6e6578697374656e7420746f6b656e0000000000000000000000000000000000602082015250565b7f4552433732313a20617070726f76616c20746f2063757272656e74206f776e6560008201527f7200000000000000000000000000000000000000000000000000000000000000602082015250565b7f4552433732313a207472616e736665722063616c6c6572206973206e6f74206f60008201527f776e6572206e6f7220617070726f766564000000000000000000000000000000602082015250565b7f455243373231456e756d657261626c653a20676c6f62616c20696e646578206f60008201527f7574206f6620626f756e64730000000000000000000000000000000000000000602082015250565b612e4e81612767565b8114612e5957600080fd5b50565b612e6581612779565b8114612e7057600080fd5b50565b612e7c81612785565b8114612e8757600080fd5b50565b612e93816127d1565b8114612e9e57600080fd5b5056fea2646970667358221220946af093d18fb981fafd16709a894e529d843c57b599573be0862a815091e2f664736f6c63430008040033",
  "devdoc": {
    "kind": "dev",
    "methods": {
      "approve(address,uint256)": {
        "details": "See {IERC721-approve}."
      },
      "balanceOf(address)": {
        "details": "See {IERC721-balanceOf}."
      },
      "getApproved(uint256)": {
        "details": "See {IERC721-getApproved}."
      },
      "isApprovedForAll(address,address)": {
        "details": "See {IERC721-isApprovedForAll}."
      },
      "name()": {
        "details": "See {IERC721Metadata-name}."
      },
      "ownerOf(uint256)": {
        "details": "See {IERC721-ownerOf}."
      },
      "safeTransferFrom(address,address,uint256)": {
        "details": "See {IERC721-safeTransferFrom}."
      },
      "safeTransferFrom(address,address,uint256,bytes)": {
        "details": "See {IERC721-safeTransferFrom}."
      },
      "setApprovalForAll(address,bool)": {
        "details": "See {IERC721-setApprovalForAll}."
      },
      "supportsInterface(bytes4)": {
        "details": "See {IERC165-supportsInterface}."
      },
      "symbol()": {
        "details": "See {IERC721Metadata-symbol}."
      },
      "tokenByIndex(uint256)": {
        "details": "See {IERC721Enumerable-tokenByIndex}."
      },
      "tokenOfOwnerByIndex(address,uint256)": {
        "details": "See {IERC721Enumerable-tokenOfOwnerByIndex}."
      },
      "tokenURI(uint256)": {
        "details": "See {IERC721Metadata-tokenURI}."
      },
      "totalSupply()": {
        "details": "See {IERC721Enumerable-totalSupply}."
      },
      "transferFrom(address,address,uint256)": {
        "details": "See {IERC721-transferFrom}."
      }
    },
    "version": 1
  },
  "userdoc": {
    "kind": "user",
    "methods": {},
    "version": 1
  },
  "storageLayout": {
    "storage": [
      {
        "astId": 25,
        "contract": "contracts/FakeErc721.sol:FakeErc721",
        "label": "_name",
        "offset": 0,
        "slot": "0",
        "type": "t_string_storage"
      },
      {
        "astId": 27,
        "contract": "contracts/FakeErc721.sol:FakeErc721",
        "label": "_symbol",
        "offset": 0,
        "slot": "1",
        "type": "t_string_storage"
      },
      {
        "astId": 31,
        "contract": "contracts/FakeErc721.sol:FakeErc721",
        "label": "_owners",
        "offset": 0,
        "slot": "2",
        "type": "t_mapping(t_uint256,t_address)"
      },
      {
        "astId": 35,
        "contract": "contracts/FakeErc721.sol:FakeErc721",
        "label": "_balances",
        "offset": 0,
        "slot": "3",
        "type": "t_mapping(t_address,t_uint256)"
      },
      {
        "astId": 39,
        "contract": "contracts/FakeErc721.sol:FakeErc721",
        "label": "_tokenApprovals",
        "offset": 0,
        "slot": "4",
        "type": "t_mapping(t_uint256,t_address)"
      },
      {
        "astId": 45,
        "contract": "contracts/FakeErc721.sol:FakeErc721",
        "label": "_operatorApprovals",
        "offset": 0,
        "slot": "5",
        "type": "t_mapping(t_address,t_mapping(t_address,t_bool))"
      },
      {
        "astId": 964,
        "contract": "contracts/FakeErc721.sol:FakeErc721",
        "label": "_ownedTokens",
        "offset": 0,
        "slot": "6",
        "type": "t_mapping(t_address,t_mapping(t_uint256,t_uint256))"
      },
      {
        "astId": 968,
        "contract": "contracts/FakeErc721.sol:FakeErc721",
        "label": "_ownedTokensIndex",
        "offset": 0,
        "slot": "7",
        "type": "t_mapping(t_uint256,t_uint256)"
      },
      {
        "astId": 971,
        "contract": "contracts/FakeErc721.sol:FakeErc721",
        "label": "_allTokens",
        "offset": 0,
        "slot": "8",
        "type": "t_array(t_uint256)dyn_storage"
      },
      {
        "astId": 975,
        "contract": "contracts/FakeErc721.sol:FakeErc721",
        "label": "_allTokensIndex",
        "offset": 0,
        "slot": "9",
        "type": "t_mapping(t_uint256,t_uint256)"
      }
    ],
    "types": {
      "t_address": {
        "encoding": "inplace",
        "label": "address",
        "numberOfBytes": "20"
      },
      "t_array(t_uint256)dyn_storage": {
        "base": "t_uint256",
        "encoding": "dynamic_array",
        "label": "uint256[]",
        "numberOfBytes": "32"
      },
      "t_bool": {
        "encoding": "inplace",
        "label": "bool",
        "numberOfBytes": "1"
      },
      "t_mapping(t_address,t_bool)": {
        "encoding": "mapping",
        "key": "t_address",
        "label": "mapping(address => bool)",
        "numberOfBytes": "32",
        "value": "t_bool"
      },
      "t_mapping(t_address,t_mapping(t_address,t_bool))": {
        "encoding": "mapping",
        "key": "t_address",
        "label": "mapping(address => mapping(address => bool))",
        "numberOfBytes": "32",
        "value": "t_mapping(t_address,t_bool)"
      },
      "t_mapping(t_address,t_mapping(t_uint256,t_uint256))": {
        "encoding": "mapping",
        "key": "t_address",
        "label": "mapping(address => mapping(uint256 => uint256))",
        "numberOfBytes": "32",
        "value": "t_mapping(t_uint256,t_uint256)"
      },
      "t_mapping(t_address,t_uint256)": {
        "encoding": "mapping",
        "key": "t_address",
        "label": "mapping(address => uint256)",
        "numberOfBytes": "32",
        "value": "t_uint256"
      },
      "t_mapping(t_uint256,t_address)": {
        "encoding": "mapping",
        "key": "t_uint256",
        "label": "mapping(uint256 => address)",
        "numberOfBytes": "32",
        "value": "t_address"
      },
      "t_mapping(t_uint256,t_uint256)": {
        "encoding": "mapping",
        "key": "t_uint256",
        "label": "mapping(uint256 => uint256)",
        "numberOfBytes": "32",
        "value": "t_uint256"
      },
      "t_string_storage": {
        "encoding": "bytes",
        "label": "string",
        "numberOfBytes": "32"
      },
      "t_uint256": {
        "encoding": "inplace",
        "label": "uint256",
        "numberOfBytes": "32"
      }
    }
  }
}