{
  "address": "0x4C443Ae97a4B2B2fD35a783F3dBD906B2055B7eb",
  "abi": [
    {
      "inputs": [
        {
          "internalType": "address",
          "name": "_starknetCore",
          "type": "address"
        },
        {
          "internalType": "uint256",
          "name": "_endpointGateway",
          "type": "uint256"
        }
      ],
      "stateMutability": "nonpayable",
      "type": "constructor"
    },
    {
      "anonymous": false,
      "inputs": [
        {
          "indexed": true,
          "internalType": "address",
          "name": "l1ERC721",
          "type": "address"
        },
        {
          "indexed": true,
          "internalType": "uint256",
          "name": "l2ERC721",
          "type": "uint256"
        },
        {
          "indexed": true,
          "internalType": "address",
          "name": "l1Account",
          "type": "address"
        },
        {
          "indexed": false,
          "internalType": "uint256",
          "name": "tokenId",
          "type": "uint256"
        }
      ],
      "name": "BridgeFromStarknet",
      "type": "event"
    },
    {
      "anonymous": false,
      "inputs": [
        {
          "indexed": true,
          "internalType": "address",
          "name": "l1ERC721",
          "type": "address"
        },
        {
          "indexed": true,
          "internalType": "uint256",
          "name": "l2ERC721",
          "type": "uint256"
        },
        {
          "indexed": true,
          "internalType": "uint256",
          "name": "l2Account",
          "type": "uint256"
        },
        {
          "indexed": false,
          "internalType": "uint256",
          "name": "tokenId",
          "type": "uint256"
        }
      ],
      "name": "BridgeToStarknet",
      "type": "event"
    },
    {
      "inputs": [
        {
          "internalType": "contract IERC721",
          "name": "_l1TokenContract",
          "type": "address"
        },
        {
          "internalType": "uint256",
          "name": "_l2TokenContract",
          "type": "uint256"
        },
        {
          "internalType": "uint256",
          "name": "_tokenId",
          "type": "uint256"
        }
      ],
      "name": "bridgeFromStarknet",
      "outputs": [],
      "stateMutability": "nonpayable",
      "type": "function"
    },
    {
      "inputs": [
        {
          "internalType": "contract IERC721",
          "name": "_l1TokenContract",
          "type": "address"
        },
        {
          "internalType": "uint256",
          "name": "_l2TokenContract",
          "type": "uint256"
        },
        {
          "internalType": "uint256",
          "name": "_tokenId",
          "type": "uint256"
        }
      ],
      "name": "bridgeFromStarknetAvailable",
      "outputs": [
        {
          "internalType": "bool",
          "name": "",
          "type": "bool"
        }
      ],
      "stateMutability": "view",
      "type": "function"
    },
    {
      "inputs": [
        {
          "internalType": "contract IERC721",
          "name": "_l1TokenContract",
          "type": "address"
        },
        {
          "internalType": "uint256",
          "name": "_l2TokenContract",
          "type": "uint256"
        },
        {
          "internalType": "uint256",
          "name": "_tokenId",
          "type": "uint256"
        },
        {
          "internalType": "uint256",
          "name": "_account",
          "type": "uint256"
        }
      ],
      "name": "bridgeToStarknet",
      "outputs": [],
      "stateMutability": "nonpayable",
      "type": "function"
    },
    {
      "inputs": [],
      "name": "endpointGateway",
      "outputs": [
        {
          "internalType": "uint256",
          "name": "",
          "type": "uint256"
        }
      ],
      "stateMutability": "view",
      "type": "function"
    },
    {
      "inputs": [],
      "name": "starknetCore",
      "outputs": [
        {
          "internalType": "contract IStarknetCore",
          "name": "",
          "type": "address"
        }
      ],
      "stateMutability": "view",
      "type": "function"
    }
  ],
  "transactionHash": "0x6cfd4cb5cd7fa9a27ce1801962be9dfde438f4135e36c16e2f76befd1401d1fe",
  "args": [
    "0xde29d060D45901Fb19ED6C6e959EB22d8626708e",
    "0x03b95a29feda7346bbcd0a19f143e434beef3308d4d959433baf393a16e5bb45"
  ],
  "solcInputHash": "ed6a0b1db65c489ef6c78a2a71d24aaa",
  "bytecode": "0x60806040523480156200001157600080fd5b506040516200131c3803806200131c83398181016040528101906200003791906200016f565b600073ffffffffffffffffffffffffffffffffffffffff168273ffffffffffffffffffffffffffffffffffffffff161415620000aa576040517f08c379a0000000000000000000000000000000000000000000000000000000008152600401620000a190620001fe565b60405180910390fd5b6000811415620000f1576040517f08c379a0000000000000000000000000000000000000000000000000000000008152600401620000e89062000220565b60405180910390fd5b81600160006101000a81548173ffffffffffffffffffffffffffffffffffffffff021916908373ffffffffffffffffffffffffffffffffffffffff16021790555080600081905550505062000363565b60008151905062000152816200032f565b92915050565b600081519050620001698162000349565b92915050565b600080604083850312156200018357600080fd5b6000620001938582860162000141565b9250506020620001a68582860162000158565b9150509250929050565b6000620001bf60258362000242565b9150620001cc8262000291565b604082019050919050565b6000620001e660288362000242565b9150620001f382620002e0565b604082019050919050565b600060208201905081810360008301526200021981620001b0565b9050919050565b600060208201905081810360008301526200023b81620001d7565b9050919050565b600082825260208201905092915050565b6000620002608262000267565b9050919050565b600073ffffffffffffffffffffffffffffffffffffffff82169050919050565b6000819050919050565b7f476174657761792f696e76616c69642d737461726b6e65742d636f72652d616460008201527f6472657373000000000000000000000000000000000000000000000000000000602082015250565b7f476174657761792f696e76616c69642d737461726b6e65742d6761746577617960008201527f2d61646472657373000000000000000000000000000000000000000000000000602082015250565b6200033a8162000253565b81146200034657600080fd5b50565b620003548162000287565b81146200036057600080fd5b50565b610fa980620003736000396000f3fe608060405234801561001057600080fd5b50600436106100575760003560e01c806339e730ab1461005c57806341b3a0a11461007a57806366fbae52146100985780636d54e972146100b45780638af6bae9146100d0575b600080fd5b610064610100565b6040516100719190610dcb565b60405180910390f35b610082610126565b60405161008f9190610de6565b60405180910390f35b6100b260048036038101906100ad9190610acd565b61012c565b005b6100ce60048036038101906100c99190610b1c565b610480565b005b6100ea60048036038101906100e59190610acd565b610791565b6040516100f79190610d95565b60405180910390f35b600160009054906101000a900473ffffffffffffffffffffffffffffffffffffffff1681565b60005481565b6000600567ffffffffffffffff81111561016f577f4e487b7100000000000000000000000000000000000000000000000000000000600052604160045260246000fd5b60405190808252806020026020018201604052801561019d5781602001602082028036833780820191505090505b5090506001816000815181106101dc577f4e487b7100000000000000000000000000000000000000000000000000000000600052603260045260246000fd5b6020026020010181815250506101f133610a6e565b8160018151811061022b577f4e487b7100000000000000000000000000000000000000000000000000000000600052603260045260246000fd5b60200260200101818152505061024084610a6e565b8160028151811061027a577f4e487b7100000000000000000000000000000000000000000000000000000000600052603260045260246000fd5b60200260200101818152505082816003815181106102c1577f4e487b7100000000000000000000000000000000000000000000000000000000600052603260045260246000fd5b6020026020010181815250508181600481518110610308577f4e487b7100000000000000000000000000000000000000000000000000000000600052603260045260246000fd5b602002602001018181525050600160009054906101000a900473ffffffffffffffffffffffffffffffffffffffff1673ffffffffffffffffffffffffffffffffffffffff16632c9dd5c0600054836040518363ffffffff1660e01b8152600401610373929190610e01565b600060405180830381600087803b15801561038d57600080fd5b505af11580156103a1573d6000803e3d6000fd5b505050508373ffffffffffffffffffffffffffffffffffffffff166323b872dd3033856040518463ffffffff1660e01b81526004016103e293929190610d5e565b600060405180830381600087803b1580156103fc57600080fd5b505af1158015610410573d6000803e3d6000fd5b505050503373ffffffffffffffffffffffffffffffffffffffff16838573ffffffffffffffffffffffffffffffffffffffff167f3c79007e2a0060755a5fcb7ba40951f8249cfe7de5359d6f78f902bd64c6b54d856040516104729190610de6565b60405180910390a450505050565b6000600467ffffffffffffffff8111156104c3577f4e487b7100000000000000000000000000000000000000000000000000000000600052604160045260246000fd5b6040519080825280602002602001820160405280156104f15781602001602082028036833780820191505090505b5090508473ffffffffffffffffffffffffffffffffffffffff166323b872dd3330866040518463ffffffff1660e01b815260040161053193929190610d5e565b600060405180830381600087803b15801561054b57600080fd5b505af115801561055f573d6000803e3d6000fd5b50505050818160008151811061059e577f4e487b7100000000000000000000000000000000000000000000000000000000600052603260045260246000fd5b6020026020010181815250506105b385610a6e565b816001815181106105ed577f4e487b7100000000000000000000000000000000000000000000000000000000600052603260045260246000fd5b6020026020010181815250508381600281518110610634577f4e487b7100000000000000000000000000000000000000000000000000000000600052603260045260246000fd5b602002602001018181525050828160038151811061067b577f4e487b7100000000000000000000000000000000000000000000000000000000600052603260045260246000fd5b602002602001018181525050600160009054906101000a900473ffffffffffffffffffffffffffffffffffffffff1673ffffffffffffffffffffffffffffffffffffffff16633e3aa6c56000547f03d7e9aabaee46b2e84062eb3bca33a0c08e1142b329c095d47ec3d6af1adbc6846040518463ffffffff1660e01b815260040161070893929190610e31565b600060405180830381600087803b15801561072257600080fd5b505af1158015610736573d6000803e3d6000fd5b5050505081848673ffffffffffffffffffffffffffffffffffffffff167f0aca6293f7494f7c541b84fe2129038e04f72d67d9c5d23c45435370dd56bb09866040516107829190610de6565b60405180910390a45050505050565b600080600567ffffffffffffffff8111156107d5577f4e487b7100000000000000000000000000000000000000000000000000000000600052604160045260246000fd5b6040519080825280602002602001820160405280156108035781602001602082028036833780820191505090505b509050600181600081518110610842577f4e487b7100000000000000000000000000000000000000000000000000000000600052603260045260246000fd5b60200260200101818152505061085733610a6e565b81600181518110610891577f4e487b7100000000000000000000000000000000000000000000000000000000600052603260045260246000fd5b6020026020010181815250506108a685610a6e565b816002815181106108e0577f4e487b7100000000000000000000000000000000000000000000000000000000600052603260045260246000fd5b6020026020010181815250508381600381518110610927577f4e487b7100000000000000000000000000000000000000000000000000000000600052603260045260246000fd5b602002602001018181525050828160048151811061096e577f4e487b7100000000000000000000000000000000000000000000000000000000600052603260045260246000fd5b6020026020010181815250506000805461098730610a6e565b83518460405160200161099d9493929190610d14565b6040516020818303038152906040528051906020012090506000600160009054906101000a900473ffffffffffffffffffffffffffffffffffffffff1673ffffffffffffffffffffffffffffffffffffffff1663a46efaf3836040518263ffffffff1660e01b8152600401610a129190610db0565b60206040518083038186803b158015610a2a57600080fd5b505afa158015610a3e573d6000803e3d6000fd5b505050506040513d601f19601f82011682018060405250810190610a629190610b7f565b11925050509392505050565b60008173ffffffffffffffffffffffffffffffffffffffff169050919050565b600081359050610a9d81610f45565b92915050565b600081359050610ab281610f5c565b92915050565b600081519050610ac781610f5c565b92915050565b600080600060608486031215610ae257600080fd5b6000610af086828701610a8e565b9350506020610b0186828701610aa3565b9250506040610b1286828701610aa3565b9150509250925092565b60008060008060808587031215610b3257600080fd5b6000610b4087828801610a8e565b9450506020610b5187828801610aa3565b9350506040610b6287828801610aa3565b9250506060610b7387828801610aa3565b91505092959194509250565b600060208284031215610b9157600080fd5b6000610b9f84828501610ab8565b91505092915050565b6000610bb48383610cd0565b60208301905092915050565b6000610bcc8383610cee565b60208301905092915050565b610be181610eb3565b82525050565b6000610bf282610e7f565b610bfc8185610e97565b9350610c0783610e6f565b8060005b83811015610c38578151610c1f8882610ba8565b9750610c2a83610e8a565b925050600181019050610c0b565b5085935050505092915050565b6000610c5082610e7f565b610c5a8185610ea8565b9350610c6583610e6f565b8060005b83811015610c96578151610c7d8882610bc0565b9750610c8883610e8a565b925050600181019050610c69565b5085935050505092915050565b610cac81610ec5565b82525050565b610cbb81610ed1565b82525050565b610cca81610f17565b82525050565b610cd981610f0d565b82525050565b610ce881610f0d565b82525050565b610cf781610f0d565b82525050565b610d0e610d0982610f0d565b610f3b565b82525050565b6000610d208287610cfd565b602082019150610d308286610cfd565b602082019150610d408285610cfd565b602082019150610d508284610c45565b915081905095945050505050565b6000606082019050610d736000830186610bd8565b610d806020830185610bd8565b610d8d6040830184610cdf565b949350505050565b6000602082019050610daa6000830184610ca3565b92915050565b6000602082019050610dc56000830184610cb2565b92915050565b6000602082019050610de06000830184610cc1565b92915050565b6000602082019050610dfb6000830184610cdf565b92915050565b6000604082019050610e166000830185610cdf565b8181036020830152610e288184610be7565b90509392505050565b6000606082019050610e466000830186610cdf565b610e536020830185610cdf565b8181036040830152610e658184610be7565b9050949350505050565b6000819050602082019050919050565b600081519050919050565b6000602082019050919050565b600082825260208201905092915050565b600081905092915050565b6000610ebe82610eed565b9050919050565b60008115159050919050565b6000819050919050565b6000610ee682610eb3565b9050919050565b600073ffffffffffffffffffffffffffffffffffffffff82169050919050565b6000819050919050565b6000610f2282610f29565b9050919050565b6000610f3482610eed565b9050919050565b6000819050919050565b610f4e81610edb565b8114610f5957600080fd5b50565b610f6581610f0d565b8114610f7057600080fd5b5056fea26469706673582212206f8d98071612e2aed1e119254cf7f71334c6287af5d0b43e8281d6368e19365064736f6c63430008040033",
  "devdoc": {
    "kind": "dev",
    "methods": {},
    "version": 1
  },
  "userdoc": {
    "kind": "user",
    "methods": {},
    "version": 1
  },
  "storageLayout": {
    "storage": [
      {
        "astId": 133,
        "contract": "contracts/Gateway.sol:Gateway",
        "label": "endpointGateway",
        "offset": 0,
        "slot": "0",
        "type": "t_uint256"
      },
      {
        "astId": 136,
        "contract": "contracts/Gateway.sol:Gateway",
        "label": "starknetCore",
        "offset": 0,
        "slot": "1",
        "type": "t_contract(IStarknetCore)513"
      }
    ],
    "types": {
      "t_contract(IStarknetCore)513": {
        "encoding": "inplace",
        "label": "contract IStarknetCore",
        "numberOfBytes": "20"
      },
      "t_uint256": {
        "encoding": "inplace",
        "label": "uint256",
        "numberOfBytes": "32"
      }
    }
  }
}