{
  "address": "0xd9cEdF07AfDd92eF2733b919637744D5E166492e",
  "abi": [
    {
      "inputs": [
        {
          "internalType": "address",
          "name": "_starknetCore",
          "type": "address"
        },
        {
          "internalType": "uint256",
          "name": "_endpointGateway",
          "type": "uint256"
        }
      ],
      "stateMutability": "nonpayable",
      "type": "constructor"
    },
    {
      "anonymous": false,
      "inputs": [
        {
          "indexed": true,
          "internalType": "address",
          "name": "l1ERC721",
          "type": "address"
        },
        {
          "indexed": true,
          "internalType": "uint256",
          "name": "l2ERC721",
          "type": "uint256"
        },
        {
          "indexed": true,
          "internalType": "address",
          "name": "l1Account",
          "type": "address"
        },
        {
          "indexed": false,
          "internalType": "uint256",
          "name": "tokenId",
          "type": "uint256"
        }
      ],
      "name": "BridgeFromStarknet",
      "type": "event"
    },
    {
      "anonymous": false,
      "inputs": [
        {
          "indexed": true,
          "internalType": "address",
          "name": "l1ERC721",
          "type": "address"
        },
        {
          "indexed": true,
          "internalType": "uint256",
          "name": "l2ERC721",
          "type": "uint256"
        },
        {
          "indexed": true,
          "internalType": "uint256",
          "name": "l2Account",
          "type": "uint256"
        },
        {
          "indexed": false,
          "internalType": "uint256",
          "name": "tokenId",
          "type": "uint256"
        }
      ],
      "name": "BridgeToStarknet",
      "type": "event"
    },
    {
      "inputs": [
        {
          "internalType": "contract IERC721",
          "name": "_l1TokenContract",
          "type": "address"
        },
        {
          "internalType": "uint256",
          "name": "_l2TokenContract",
          "type": "uint256"
        },
        {
          "internalType": "uint256",
          "name": "_tokenId",
          "type": "uint256"
        }
      ],
      "name": "bridgeFromStarknet",
      "outputs": [],
      "stateMutability": "nonpayable",
      "type": "function"
    },
    {
      "inputs": [
        {
          "internalType": "contract IERC721",
          "name": "_l1TokenContract",
          "type": "address"
        },
        {
          "internalType": "uint256",
          "name": "_l2TokenContract",
          "type": "uint256"
        },
        {
          "internalType": "uint256",
          "name": "_tokenId",
          "type": "uint256"
        }
      ],
      "name": "bridgeFromStarknetAvailable",
      "outputs": [
        {
          "internalType": "bool",
          "name": "",
          "type": "bool"
        }
      ],
      "stateMutability": "view",
      "type": "function"
    },
    {
      "inputs": [
        {
          "internalType": "contract IERC721",
          "name": "_l1TokenContract",
          "type": "address"
        },
        {
          "internalType": "uint256",
          "name": "_l2TokenContract",
          "type": "uint256"
        },
        {
          "internalType": "uint256",
          "name": "_tokenId",
          "type": "uint256"
        },
        {
          "internalType": "uint256",
          "name": "_account",
          "type": "uint256"
        }
      ],
      "name": "bridgeToStarknet",
      "outputs": [],
      "stateMutability": "nonpayable",
      "type": "function"
    },
    {
      "inputs": [
        {
          "internalType": "contract IERC721",
          "name": "_l1TokenContract",
          "type": "address"
        },
        {
          "internalType": "uint256",
          "name": "_l2TokenContract",
          "type": "uint256"
        },
        {
          "internalType": "uint256",
          "name": "_tokenId",
          "type": "uint256"
        }
      ],
      "name": "debug_bridgeFromStarknetAvailable",
      "outputs": [
        {
          "internalType": "bytes32",
          "name": "",
          "type": "bytes32"
        }
      ],
      "stateMutability": "view",
      "type": "function"
    },
    {
      "inputs": [],
      "name": "endpointGateway",
      "outputs": [
        {
          "internalType": "uint256",
          "name": "",
          "type": "uint256"
        }
      ],
      "stateMutability": "view",
      "type": "function"
    },
    {
      "inputs": [],
      "name": "starknetCore",
      "outputs": [
        {
          "internalType": "contract IStarknetCore",
          "name": "",
          "type": "address"
        }
      ],
      "stateMutability": "view",
      "type": "function"
    }
  ],
  "transactionHash": "0xd0b2a4d1d9098d4d9d67a0b5ab592573368dd94914d020787d9e5257f8792b8a",
  "args": [
    "0xde29d060D45901Fb19ED6C6e959EB22d8626708e",
    "0x045c2f280c6d96a1e1ff740fd38eb6caab833db833ff03a23fbc10fc746025f8"
  ],
  "solcInputHash": "138c066b16561d2841a600ab4a6c29b1",
  "bytecode": "0x60806040523480156200001157600080fd5b50604051620015873803806200158783398181016040528101906200003791906200016f565b600073ffffffffffffffffffffffffffffffffffffffff168273ffffffffffffffffffffffffffffffffffffffff161415620000aa576040517f08c379a0000000000000000000000000000000000000000000000000000000008152600401620000a190620001fe565b60405180910390fd5b6000811415620000f1576040517f08c379a0000000000000000000000000000000000000000000000000000000008152600401620000e89062000220565b60405180910390fd5b81600160006101000a81548173ffffffffffffffffffffffffffffffffffffffff021916908373ffffffffffffffffffffffffffffffffffffffff16021790555080600081905550505062000363565b60008151905062000152816200032f565b92915050565b600081519050620001698162000349565b92915050565b600080604083850312156200018357600080fd5b6000620001938582860162000141565b9250506020620001a68582860162000158565b9150509250929050565b6000620001bf60258362000242565b9150620001cc8262000291565b604082019050919050565b6000620001e660288362000242565b9150620001f382620002e0565b604082019050919050565b600060208201905081810360008301526200021981620001b0565b9050919050565b600060208201905081810360008301526200023b81620001d7565b9050919050565b600082825260208201905092915050565b6000620002608262000267565b9050919050565b600073ffffffffffffffffffffffffffffffffffffffff82169050919050565b6000819050919050565b7f476174657761792f696e76616c69642d737461726b6e65742d636f72652d616460008201527f6472657373000000000000000000000000000000000000000000000000000000602082015250565b7f476174657761792f696e76616c69642d737461726b6e65742d6761746577617960008201527f2d61646472657373000000000000000000000000000000000000000000000000602082015250565b6200033a8162000253565b81146200034657600080fd5b50565b620003548162000287565b81146200036057600080fd5b50565b61121480620003736000396000f3fe608060405234801561001057600080fd5b50600436106100625760003560e01c806339e730ab1461006757806341b3a0a11461008557806366fbae52146100a35780636d54e972146100bf578063880f825b146100db5780638af6bae91461010b575b600080fd5b61006f61013b565b60405161007c9190611036565b60405180910390f35b61008d610161565b60405161009a9190611051565b60405180910390f35b6100bd60048036038101906100b89190610d38565b610167565b005b6100d960048036038101906100d49190610d87565b6104bb565b005b6100f560048036038101906100f09190610d38565b6107cc565b604051610102919061101b565b60405180910390f35b61012560048036038101906101209190610d38565b6109fc565b6040516101329190611000565b60405180910390f35b600160009054906101000a900473ffffffffffffffffffffffffffffffffffffffff1681565b60005481565b6000600567ffffffffffffffff8111156101aa577f4e487b7100000000000000000000000000000000000000000000000000000000600052604160045260246000fd5b6040519080825280602002602001820160405280156101d85781602001602082028036833780820191505090505b509050600181600081518110610217577f4e487b7100000000000000000000000000000000000000000000000000000000600052603260045260246000fd5b60200260200101818152505061022c33610cd9565b81600181518110610266577f4e487b7100000000000000000000000000000000000000000000000000000000600052603260045260246000fd5b60200260200101818152505061027b84610cd9565b816002815181106102b5577f4e487b7100000000000000000000000000000000000000000000000000000000600052603260045260246000fd5b60200260200101818152505082816003815181106102fc577f4e487b7100000000000000000000000000000000000000000000000000000000600052603260045260246000fd5b6020026020010181815250508181600481518110610343577f4e487b7100000000000000000000000000000000000000000000000000000000600052603260045260246000fd5b602002602001018181525050600160009054906101000a900473ffffffffffffffffffffffffffffffffffffffff1673ffffffffffffffffffffffffffffffffffffffff16632c9dd5c0600054836040518363ffffffff1660e01b81526004016103ae92919061106c565b600060405180830381600087803b1580156103c857600080fd5b505af11580156103dc573d6000803e3d6000fd5b505050508373ffffffffffffffffffffffffffffffffffffffff166323b872dd3033856040518463ffffffff1660e01b815260040161041d93929190610fc9565b600060405180830381600087803b15801561043757600080fd5b505af115801561044b573d6000803e3d6000fd5b505050503373ffffffffffffffffffffffffffffffffffffffff16838573ffffffffffffffffffffffffffffffffffffffff167f3c79007e2a0060755a5fcb7ba40951f8249cfe7de5359d6f78f902bd64c6b54d856040516104ad9190611051565b60405180910390a450505050565b6000600467ffffffffffffffff8111156104fe577f4e487b7100000000000000000000000000000000000000000000000000000000600052604160045260246000fd5b60405190808252806020026020018201604052801561052c5781602001602082028036833780820191505090505b5090508473ffffffffffffffffffffffffffffffffffffffff166323b872dd3330866040518463ffffffff1660e01b815260040161056c93929190610fc9565b600060405180830381600087803b15801561058657600080fd5b505af115801561059a573d6000803e3d6000fd5b5050505081816000815181106105d9577f4e487b7100000000000000000000000000000000000000000000000000000000600052603260045260246000fd5b6020026020010181815250506105ee85610cd9565b81600181518110610628577f4e487b7100000000000000000000000000000000000000000000000000000000600052603260045260246000fd5b602002602001018181525050838160028151811061066f577f4e487b7100000000000000000000000000000000000000000000000000000000600052603260045260246000fd5b60200260200101818152505082816003815181106106b6577f4e487b7100000000000000000000000000000000000000000000000000000000600052603260045260246000fd5b602002602001018181525050600160009054906101000a900473ffffffffffffffffffffffffffffffffffffffff1673ffffffffffffffffffffffffffffffffffffffff16633e3aa6c56000547f03d7e9aabaee46b2e84062eb3bca33a0c08e1142b329c095d47ec3d6af1adbc6846040518463ffffffff1660e01b81526004016107439392919061109c565b600060405180830381600087803b15801561075d57600080fd5b505af1158015610771573d6000803e3d6000fd5b5050505081848673ffffffffffffffffffffffffffffffffffffffff167f0aca6293f7494f7c541b84fe2129038e04f72d67d9c5d23c45435370dd56bb09866040516107bd9190611051565b60405180910390a45050505050565b600080600567ffffffffffffffff811115610810577f4e487b7100000000000000000000000000000000000000000000000000000000600052604160045260246000fd5b60405190808252806020026020018201604052801561083e5781602001602082028036833780820191505090505b50905060018160008151811061087d577f4e487b7100000000000000000000000000000000000000000000000000000000600052603260045260246000fd5b60200260200101818152505061089233610cd9565b816001815181106108cc577f4e487b7100000000000000000000000000000000000000000000000000000000600052603260045260246000fd5b6020026020010181815250506108e185610cd9565b8160028151811061091b577f4e487b7100000000000000000000000000000000000000000000000000000000600052603260045260246000fd5b6020026020010181815250508381600381518110610962577f4e487b7100000000000000000000000000000000000000000000000000000000600052603260045260246000fd5b60200260200101818152505082816004815181106109a9577f4e487b7100000000000000000000000000000000000000000000000000000000600052603260045260246000fd5b602002602001018181525050600080546109c230610cd9565b8351846040516020016109d89493929190610f7f565b60405160208183030381529060405280519060200120905080925050509392505050565b600080600567ffffffffffffffff811115610a40577f4e487b7100000000000000000000000000000000000000000000000000000000600052604160045260246000fd5b604051908082528060200260200182016040528015610a6e5781602001602082028036833780820191505090505b509050600181600081518110610aad577f4e487b7100000000000000000000000000000000000000000000000000000000600052603260045260246000fd5b602002602001018181525050610ac233610cd9565b81600181518110610afc577f4e487b7100000000000000000000000000000000000000000000000000000000600052603260045260246000fd5b602002602001018181525050610b1185610cd9565b81600281518110610b4b577f4e487b7100000000000000000000000000000000000000000000000000000000600052603260045260246000fd5b6020026020010181815250508381600381518110610b92577f4e487b7100000000000000000000000000000000000000000000000000000000600052603260045260246000fd5b6020026020010181815250508281600481518110610bd9577f4e487b7100000000000000000000000000000000000000000000000000000000600052603260045260246000fd5b60200260200101818152505060008054610bf230610cd9565b835184604051602001610c089493929190610f7f565b6040516020818303038152906040528051906020012090506000600160009054906101000a900473ffffffffffffffffffffffffffffffffffffffff1673ffffffffffffffffffffffffffffffffffffffff1663a46efaf3836040518263ffffffff1660e01b8152600401610c7d919061101b565b60206040518083038186803b158015610c9557600080fd5b505afa158015610ca9573d6000803e3d6000fd5b505050506040513d601f19601f82011682018060405250810190610ccd9190610dea565b11925050509392505050565b60008173ffffffffffffffffffffffffffffffffffffffff169050919050565b600081359050610d08816111b0565b92915050565b600081359050610d1d816111c7565b92915050565b600081519050610d32816111c7565b92915050565b600080600060608486031215610d4d57600080fd5b6000610d5b86828701610cf9565b9350506020610d6c86828701610d0e565b9250506040610d7d86828701610d0e565b9150509250925092565b60008060008060808587031215610d9d57600080fd5b6000610dab87828801610cf9565b9450506020610dbc87828801610d0e565b9350506040610dcd87828801610d0e565b9250506060610dde87828801610d0e565b91505092959194509250565b600060208284031215610dfc57600080fd5b6000610e0a84828501610d23565b91505092915050565b6000610e1f8383610f3b565b60208301905092915050565b6000610e378383610f59565b60208301905092915050565b610e4c8161111e565b82525050565b6000610e5d826110ea565b610e678185611102565b9350610e72836110da565b8060005b83811015610ea3578151610e8a8882610e13565b9750610e95836110f5565b925050600181019050610e76565b5085935050505092915050565b6000610ebb826110ea565b610ec58185611113565b9350610ed0836110da565b8060005b83811015610f01578151610ee88882610e2b565b9750610ef3836110f5565b925050600181019050610ed4565b5085935050505092915050565b610f1781611130565b82525050565b610f268161113c565b82525050565b610f3581611182565b82525050565b610f4481611178565b82525050565b610f5381611178565b82525050565b610f6281611178565b82525050565b610f79610f7482611178565b6111a6565b82525050565b6000610f8b8287610f68565b602082019150610f9b8286610f68565b602082019150610fab8285610f68565b602082019150610fbb8284610eb0565b915081905095945050505050565b6000606082019050610fde6000830186610e43565b610feb6020830185610e43565b610ff86040830184610f4a565b949350505050565b60006020820190506110156000830184610f0e565b92915050565b60006020820190506110306000830184610f1d565b92915050565b600060208201905061104b6000830184610f2c565b92915050565b60006020820190506110666000830184610f4a565b92915050565b60006040820190506110816000830185610f4a565b81810360208301526110938184610e52565b90509392505050565b60006060820190506110b16000830186610f4a565b6110be6020830185610f4a565b81810360408301526110d08184610e52565b9050949350505050565b6000819050602082019050919050565b600081519050919050565b6000602082019050919050565b600082825260208201905092915050565b600081905092915050565b600061112982611158565b9050919050565b60008115159050919050565b6000819050919050565b60006111518261111e565b9050919050565b600073ffffffffffffffffffffffffffffffffffffffff82169050919050565b6000819050919050565b600061118d82611194565b9050919050565b600061119f82611158565b9050919050565b6000819050919050565b6111b981611146565b81146111c457600080fd5b50565b6111d081611178565b81146111db57600080fd5b5056fea2646970667358221220c4d26b419b347c36a5199a7a8f8152ad6c64b76f9d7bf61ec67a48da1a631f5864736f6c63430008040033",
  "devdoc": {
    "kind": "dev",
    "methods": {},
    "version": 1
  },
  "userdoc": {
    "kind": "user",
    "methods": {},
    "version": 1
  },
  "storageLayout": {
    "storage": [
      {
        "astId": 133,
        "contract": "contracts/Gateway.sol:Gateway",
        "label": "endpointGateway",
        "offset": 0,
        "slot": "0",
        "type": "t_uint256"
      },
      {
        "astId": 136,
        "contract": "contracts/Gateway.sol:Gateway",
        "label": "starknetCore",
        "offset": 0,
        "slot": "1",
        "type": "t_contract(IStarknetCore)595"
      }
    ],
    "types": {
      "t_contract(IStarknetCore)595": {
        "encoding": "inplace",
        "label": "contract IStarknetCore",
        "numberOfBytes": "20"
      },
      "t_uint256": {
        "encoding": "inplace",
        "label": "uint256",
        "numberOfBytes": "32"
      }
    }
  }
}