{
  "address": "0xbc9fd05454df3992e1848a90312A6B4fDb145Ca8",
  "abi": [
    {
      "inputs": [
        {
          "internalType": "address",
          "name": "_starknetCore",
          "type": "address"
        },
        {
          "internalType": "uint256",
          "name": "_endpointGateway",
          "type": "uint256"
        }
      ],
      "stateMutability": "nonpayable",
      "type": "constructor"
    },
    {
      "anonymous": false,
      "inputs": [
        {
          "indexed": true,
          "internalType": "address",
          "name": "l1ERC721",
          "type": "address"
        },
        {
          "indexed": true,
          "internalType": "uint256",
          "name": "l2ERC721",
          "type": "uint256"
        },
        {
          "indexed": true,
          "internalType": "address",
          "name": "l1Account",
          "type": "address"
        },
        {
          "indexed": false,
          "internalType": "uint256",
          "name": "tokenId",
          "type": "uint256"
        }
      ],
      "name": "BridgeFromStarknet",
      "type": "event"
    },
    {
      "anonymous": false,
      "inputs": [
        {
          "indexed": true,
          "internalType": "address",
          "name": "l1ERC721",
          "type": "address"
        },
        {
          "indexed": true,
          "internalType": "uint256",
          "name": "l2ERC721",
          "type": "uint256"
        },
        {
          "indexed": true,
          "internalType": "uint256",
          "name": "l2Account",
          "type": "uint256"
        },
        {
          "indexed": false,
          "internalType": "uint256",
          "name": "tokenId",
          "type": "uint256"
        }
      ],
      "name": "BridgeToStarknet",
      "type": "event"
    },
    {
      "inputs": [
        {
          "internalType": "contract IERC721",
          "name": "_l1TokenContract",
          "type": "address"
        },
        {
          "internalType": "uint256",
          "name": "_l2TokenContract",
          "type": "uint256"
        },
        {
          "internalType": "uint256",
          "name": "_tokenId",
          "type": "uint256"
        }
      ],
      "name": "bridgeFromStarknet",
      "outputs": [],
      "stateMutability": "nonpayable",
      "type": "function"
    },
    {
      "inputs": [
        {
          "internalType": "contract IERC721",
          "name": "_l1TokenContract",
          "type": "address"
        },
        {
          "internalType": "uint256",
          "name": "_l2TokenContract",
          "type": "uint256"
        },
        {
          "internalType": "uint256",
          "name": "_tokenId",
          "type": "uint256"
        },
        {
          "internalType": "uint256",
          "name": "_account",
          "type": "uint256"
        }
      ],
      "name": "bridgeToStarknet",
      "outputs": [],
      "stateMutability": "nonpayable",
      "type": "function"
    },
    {
      "inputs": [],
      "name": "endpointGateway",
      "outputs": [
        {
          "internalType": "uint256",
          "name": "",
          "type": "uint256"
        }
      ],
      "stateMutability": "view",
      "type": "function"
    },
    {
      "inputs": [],
      "name": "starknetCore",
      "outputs": [
        {
          "internalType": "contract IStarknetCore",
          "name": "",
          "type": "address"
        }
      ],
      "stateMutability": "view",
      "type": "function"
    }
  ],
  "transactionHash": "0x3885c99ce4746b6a983959971bb2cb144f1abf162ed68417f2db08e092a67c23",
  "args": [
    "0xde29d060D45901Fb19ED6C6e959EB22d8626708e",
    "0x008e5676098eb2a9075be4f245a31b692306455025a45fd268fa4db916e9f1d2"
  ],
  "solcInputHash": "5d1f02d68266abf324c21f35a4669bc2",
  "bytecode": "0x60806040523480156200001157600080fd5b5060405162000e6138038062000e6183398181016040528101906200003791906200016f565b600073ffffffffffffffffffffffffffffffffffffffff168273ffffffffffffffffffffffffffffffffffffffff161415620000aa576040517f08c379a0000000000000000000000000000000000000000000000000000000008152600401620000a190620001fe565b60405180910390fd5b6000811415620000f1576040517f08c379a0000000000000000000000000000000000000000000000000000000008152600401620000e89062000220565b60405180910390fd5b81600160006101000a81548173ffffffffffffffffffffffffffffffffffffffff021916908373ffffffffffffffffffffffffffffffffffffffff16021790555080600081905550505062000363565b60008151905062000152816200032f565b92915050565b600081519050620001698162000349565b92915050565b600080604083850312156200018357600080fd5b6000620001938582860162000141565b9250506020620001a68582860162000158565b9150509250929050565b6000620001bf60258362000242565b9150620001cc8262000291565b604082019050919050565b6000620001e660288362000242565b9150620001f382620002e0565b604082019050919050565b600060208201905081810360008301526200021981620001b0565b9050919050565b600060208201905081810360008301526200023b81620001d7565b9050919050565b600082825260208201905092915050565b6000620002608262000267565b9050919050565b600073ffffffffffffffffffffffffffffffffffffffff82169050919050565b6000819050919050565b7f476174657761792f696e76616c69642d737461726b6e65742d636f72652d616460008201527f6472657373000000000000000000000000000000000000000000000000000000602082015250565b7f476174657761792f696e76616c69642d737461726b6e65742d6761746577617960008201527f2d61646472657373000000000000000000000000000000000000000000000000602082015250565b6200033a8162000253565b81146200034657600080fd5b50565b620003548162000287565b81146200036057600080fd5b50565b610aee80620003736000396000f3fe608060405234801561001057600080fd5b506004361061004c5760003560e01c806339e730ab1461005157806341b3a0a11461006f57806366fbae521461008d5780636d54e972146100a9575b600080fd5b6100596100c5565b604051610066919061093b565b60405180910390f35b6100776100eb565b6040516100849190610956565b60405180910390f35b6100a760048036038101906100a291906107a0565b6100f1565b005b6100c360048036038101906100be91906107ef565b610445565b005b600160009054906101000a900473ffffffffffffffffffffffffffffffffffffffff1681565b60005481565b6000600567ffffffffffffffff811115610134577f4e487b7100000000000000000000000000000000000000000000000000000000600052604160045260246000fd5b6040519080825280602002602001820160405280156101625781602001602082028036833780820191505090505b5090506001816000815181106101a1577f4e487b7100000000000000000000000000000000000000000000000000000000600052603260045260246000fd5b6020026020010181815250506101b633610756565b816001815181106101f0577f4e487b7100000000000000000000000000000000000000000000000000000000600052603260045260246000fd5b60200260200101818152505061020584610756565b8160028151811061023f577f4e487b7100000000000000000000000000000000000000000000000000000000600052603260045260246000fd5b6020026020010181815250508281600381518110610286577f4e487b7100000000000000000000000000000000000000000000000000000000600052603260045260246000fd5b60200260200101818152505081816004815181106102cd577f4e487b7100000000000000000000000000000000000000000000000000000000600052603260045260246000fd5b602002602001018181525050600160009054906101000a900473ffffffffffffffffffffffffffffffffffffffff1673ffffffffffffffffffffffffffffffffffffffff16632c9dd5c0600054836040518363ffffffff1660e01b8152600401610338929190610971565b600060405180830381600087803b15801561035257600080fd5b505af1158015610366573d6000803e3d6000fd5b505050508373ffffffffffffffffffffffffffffffffffffffff166323b872dd3033856040518463ffffffff1660e01b81526004016103a793929190610904565b600060405180830381600087803b1580156103c157600080fd5b505af11580156103d5573d6000803e3d6000fd5b505050503373ffffffffffffffffffffffffffffffffffffffff16838573ffffffffffffffffffffffffffffffffffffffff167f3c79007e2a0060755a5fcb7ba40951f8249cfe7de5359d6f78f902bd64c6b54d856040516104379190610956565b60405180910390a450505050565b6000600467ffffffffffffffff811115610488577f4e487b7100000000000000000000000000000000000000000000000000000000600052604160045260246000fd5b6040519080825280602002602001820160405280156104b65781602001602082028036833780820191505090505b5090508473ffffffffffffffffffffffffffffffffffffffff166323b872dd3330866040518463ffffffff1660e01b81526004016104f693929190610904565b600060405180830381600087803b15801561051057600080fd5b505af1158015610524573d6000803e3d6000fd5b505050508181600081518110610563577f4e487b7100000000000000000000000000000000000000000000000000000000600052603260045260246000fd5b60200260200101818152505061057885610756565b816001815181106105b2577f4e487b7100000000000000000000000000000000000000000000000000000000600052603260045260246000fd5b60200260200101818152505083816002815181106105f9577f4e487b7100000000000000000000000000000000000000000000000000000000600052603260045260246000fd5b6020026020010181815250508281600381518110610640577f4e487b7100000000000000000000000000000000000000000000000000000000600052603260045260246000fd5b602002602001018181525050600160009054906101000a900473ffffffffffffffffffffffffffffffffffffffff1673ffffffffffffffffffffffffffffffffffffffff16633e3aa6c56000547f03d7e9aabaee46b2e84062eb3bca33a0c08e1142b329c095d47ec3d6af1adbc6846040518463ffffffff1660e01b81526004016106cd939291906109a1565b600060405180830381600087803b1580156106e757600080fd5b505af11580156106fb573d6000803e3d6000fd5b5050505081848673ffffffffffffffffffffffffffffffffffffffff167f0aca6293f7494f7c541b84fe2129038e04f72d67d9c5d23c45435370dd56bb09866040516107479190610956565b60405180910390a45050505050565b60008173ffffffffffffffffffffffffffffffffffffffff169050919050565b60008135905061078581610a8a565b92915050565b60008135905061079a81610aa1565b92915050565b6000806000606084860312156107b557600080fd5b60006107c386828701610776565b93505060206107d48682870161078b565b92505060406107e58682870161078b565b9150509250925092565b6000806000806080858703121561080557600080fd5b600061081387828801610776565b94505060206108248782880161078b565b93505060406108358782880161078b565b92505060606108468782880161078b565b91505092959194509250565b600061085e83836108e6565b60208301905092915050565b61087381610a18565b82525050565b6000610884826109ef565b61088e8185610a07565b9350610899836109df565b8060005b838110156108ca5781516108b18882610852565b97506108bc836109fa565b92505060018101905061089d565b5085935050505092915050565b6108e081610a66565b82525050565b6108ef81610a5c565b82525050565b6108fe81610a5c565b82525050565b6000606082019050610919600083018661086a565b610926602083018561086a565b61093360408301846108f5565b949350505050565b600060208201905061095060008301846108d7565b92915050565b600060208201905061096b60008301846108f5565b92915050565b600060408201905061098660008301856108f5565b81810360208301526109988184610879565b90509392505050565b60006060820190506109b660008301866108f5565b6109c360208301856108f5565b81810360408301526109d58184610879565b9050949350505050565b6000819050602082019050919050565b600081519050919050565b6000602082019050919050565b600082825260208201905092915050565b6000610a2382610a3c565b9050919050565b6000610a3582610a18565b9050919050565b600073ffffffffffffffffffffffffffffffffffffffff82169050919050565b6000819050919050565b6000610a7182610a78565b9050919050565b6000610a8382610a3c565b9050919050565b610a9381610a2a565b8114610a9e57600080fd5b50565b610aaa81610a5c565b8114610ab557600080fd5b5056fea26469706673582212208f03d0b401d97375bd47b7356c9968247d3e0cfcdc24617228eb58e7a0c6b03764736f6c63430008040033",
  "devdoc": {
    "kind": "dev",
    "methods": {},
    "version": 1
  },
  "userdoc": {
    "kind": "user",
    "methods": {},
    "version": 1
  },
  "storageLayout": {
    "storage": [
      {
        "astId": 133,
        "contract": "contracts/Gateway.sol:Gateway",
        "label": "endpointGateway",
        "offset": 0,
        "slot": "0",
        "type": "t_uint256"
      },
      {
        "astId": 136,
        "contract": "contracts/Gateway.sol:Gateway",
        "label": "starknetCore",
        "offset": 0,
        "slot": "1",
        "type": "t_contract(IStarknetCore)418"
      }
    ],
    "types": {
      "t_contract(IStarknetCore)418": {
        "encoding": "inplace",
        "label": "contract IStarknetCore",
        "numberOfBytes": "20"
      },
      "t_uint256": {
        "encoding": "inplace",
        "label": "uint256",
        "numberOfBytes": "32"
      }
    }
  }
}